01AMOT000000000000000000002025-01-152026-01-150000000100BR-V001   000100TOYOTA         YARIS          012000ZZZ9999WHITE   12002022      000000
01AMOT444444444400000000002025-01-152026-01-150000000100BR-V002   000100FORD           FIESTA         000000FFF1111WHITE   10002021      000000
01AMOT555555555500000000002025-01-152026-01-150000000100BR-V003   000100MAZDA          3              018000MAZ1111GREY    00002023      000000
01XXXX666666666600000000002025-01-152026-01-150000000100BR-V004   000100HONDA          CIVIC          021000HON1111GREEN   16002023      000000
01AMOT777777777700000000002025-04-012026-04-010000000100BR-V005   000200AUDI           A4             030000AUD1111SILVER  19842023      000001
