01AMOT123456789000000000002025-01-152026-01-150000000100BR-A001   000100TOYOTA         YARIS          012000ABC1234RED     09982022      000000
01AMOT222222222200000000002025-02-012026-02-010000000100BR-A002   000250VOLKSWAGEN     GOLF           022500XYZ7890BLUE    15002023      000001
01AMOT333333333300000000002025-03-102026-03-100000000100BR-A003   000600BMW            M3             075000BMW1234BLACK   29982024      000002
