01AMOT100000000100000000002025-01-012026-01-010000000200BR-B001   000050BOUNDARY       CC1000         005000BND1000RED     10002020      000000
01AMOT100000000200000000002025-01-022026-01-020000000200BR-B002   000050BOUNDARY       CC1001         005000BND1001RED     10012020      000000
01AMOT100000000300000000002025-01-032026-01-030000000200BR-B003   000050BOUNDARY       CC1600         005000BND1600RED     16002020      000000
01AMOT100000000400000000002025-01-042026-01-040000000200BR-B004   000050BOUNDARY       CC2001         005000BND2001RED     20012020      000000
01AMOT100000000500000000002025-01-052026-01-050000000200BR-B005   000999MAXVALUE       FERRARI        999999MAX0001RED     65002024      000000
01AMOT100000000600000000002025-01-062026-01-060000000200BR-B006   000999MAXACCIDENT    WRECK          005000ACC9999BLACK   15002010      999999
